:100000000C943E000C945B000C945B000C945B0021
:100010000C945B000C945B000C945B000C945B00F4
:100020000C945B000C945B000C945B000C945B00E4
:100030000C945B000C945B000C945B000C945B00D4
:100040000C945B000C945B000C945B000C945B00C4
:100050000C945B000C945B000C945B000C945B00B4
:100060000C945B000C945B000C945B000C945B00A4
:100070000C945B000C945B000C945B0011241FBE7D
:10008000CFEFD0E1DEBFCDBF11E0A0E0B1E0E8E30B
:10009000F3E002C005900D92A032B107D9F711E04C
:1000A000A0E2B1E001C01D92A034B107E1F70E94C7
:1000B0004C010C949A010C940000CF93DF93C92F4C
:1000C000D0E021E030E001C0220F9A95EAF790E0FD
:1000D000AC01440F551FFA01E85EFE4F0190F0811C
:1000E000E02DDA01A05FBE4F0D90BC91A02D5FB74F
:1000F000F894611108C030812095322330833C91FF
:1001000032233C930EC0422F623041F4308120955F
:10011000232320832C91242B2C9303C02081242B78
:1001200020835FBFFC0183E0EE0FFF1F8A95E1F79C
:10013000EC0FFD1FE05EFE4F6083DF91CF910895CD
:1001400021E030E001C0220F9A95EAF7E82FF0E0B5
:10015000EE0FFF1FE05FFE4F0190F081E02D9FB793
:10016000F8948081611104C020952823208302C067
:10017000822B80839FBF0895E82FF0E0EE0FFF1FD2
:10018000E85FFE4F0190F081E02D408121E030E0FA
:10019000092E01C0220F0A94EAF7422381E009F4F4
:1001A00080E00895492F21E030E001C0220F9A95A8
:1001B000EAF790E0FC0163E0EE0FFF1F6A95E1F7BC
:1001C000E40FF11DE05EFE4F3081880F991FFC01A6
:1001D000E85FFE4F0190F081E02D9081922381E055
:1001E000323019F4992321F002C0911101C080E04E
:1001F0000895877080937C0080917A00806480935A
:100200007A0080917A0086FDFCCF209178003091B1
:100210007900932F80E0AC01422B9A01C901089527
:100220008330B1F028F4813049F08230A1F50BC061
:10023000853011F1B8F0863071F526C084B580683C
:1002400084BD67BD089584B5806284BD68BD08958E
:100250008091800080688093800070938900609313
:100260008800089580918000806280938000709360
:100270008B0060938A0008958091B000806880931D
:10028000B0006093B30008958091B00080628093C5
:10029000B0006093B400089580917A0080688093E4
:1002A0007A0084B5816084BD85B5816085BD80910B
:1002B00080008160809380008091810081608093C4
:1002C00081008091B00081608093B0008091B10086
:1002D00081608093B10061E08091060190910701F7
:1002E0000E945D0062E080910201909103010E94F2
:1002F0005D0061E080910401909105010E945D0024
:1003000082E00E94F900BC01769567957695679525
:10031000772781E00E9410018091020190910301F2
:100320000E94D200682F80910601909107010E94DF
:08033000A000E6CFF894FFCF16
:100338000002030301030100200023002600290016
:100348002200250028002B002100240027002A0075
:00000001FF
