:100000000C943E000C9448000C9448000C9448005A
:100010000C9448000C9448000C9448000C94480040
:100020000C9448000C9448000C9448000C94480030
:100030000C9448000C9448000C9448000C94480020
:100040000C9448000C9448000C9448000C94480010
:100050000C9448000C9448000C9448000C94480000
:100060000C9448000C9448000C9448000C944800F0
:100070000C9448000C9448000C94480011241FBEB6
:10008000CFEFD0E1DEBFCDBF0E944A000C946000EC
:100090000C940000209A289A2FEF83ED90E32150D2
:1000A00080409040E1F700C0000028982FEF89E6DB
:1000B00098E1215080409040E1F700C00000EBCF74
:0400C000F894FFCFE2
:00000001FF
