:100000000C941D030C9453030C9453030C9453034E
:100010000C9453030C942F060C9453030C94530329
:100020000C94EA0F0C9453030C9453030C94530355
:100030000C9453030C9453030C9453030C944B0EE5
:100040000C9453030C9453030C94FF040C94A406D7
:100050000C9453030C9453030C9453030C945303C8
:100060000C9453030C9453030C9453030C945303B8
:100070000C9453030C9453030C945303D2186C1731
:100080007C178817C417C417AE17AE177317E71776
:100090009B172E1866186D187B188218891874180B
:1000A00094170B030B040B050B060B070B080B092E
:1000B0000B0A0B02020B0B01010B0B00000B0A03D6
:1000C0000A040A050A060A070A080A090A0B0A02AC
:1000D000020A0A01010A0A00000A090309040905C3
:1000E000090609070908090A090B09020209090199
:1000F00001090900000908030804080508060807A3
:100100000809080A080B080202080801010808008B
:100110000008070307040705070607080709070A79
:10012000070B070202070701010707000007060384
:1001300006040605060706080609060A060B060257
:100140000206060101060600000605030504050671
:10015000050705080509050A050B05020205050145
:10016000010505000005040304050406040704084E
:100170000409040A040B040202040401010404003B
:100180000004030403050306030703080309030A25
:10019000030B030202030301010303000003120225
:1001A0000000000000000000000019020000000034
:1001B000000000001D0200000000000021023202C9
:1001C0003D024E025E026D027F0291029D02AF026D
:1001D0000000000000000000000000000000C1025C
:1001E000D202E402F002010311031E032D033E03B9
:1001F0004A03550364036F0381039203A103AF0312
:10020000BE03CF03DC03E603F50303041504230454
:100210002E04111213141517FF132122FF17252680
:10022000FF020304050611172127313742434445D5
:1002300046FF12172122232425262737FF02050611
:1002400007111417212427313437424347FF020690
:1002500011141721242731343742434546FF040542
:10026000131522253132333435363745FF01020369
:100270000407111417212427313437414546FF0262
:10028000030405061114172124273134374245464B
:10029000FF0111212526273133344142FF02030596
:1002A0000611141721242731343742434546FF02F3
:1002B000030711141721242731343742434445469C
:1002C000FF020304050607111421243233343536A6
:1002D00037FF0102030405060711141721242732F2
:1002E000333536FF0203040506111721273236FF86
:1002F000010203040506071117212732333435366E
:10030000FF010203040506071114172124273137C2
:10031000FF010203040506071114212431FF020323
:10032000040506111721252732353637FF01020350
:1003300004050607142431323334353637FF0107FC
:10034000111213141516172127FF07111721222345
:1003500024252631FF010203040506071423253155
:10036000323637FF01020304050607172737FF015E
:10037000020304050607122332414243444546471F
:10038000FF010203040506071324313233343536E6
:1003900037FF02030405061117212732333435369F
:1003A000FF01020304050607111421243233FF0262
:1003B00003040506111721263233343537FF0102B5
:1003C0000304050607111421242532333637FF02B2
:1003D0000306111417212427323536FF0111121399
:1003E0001415161721FF01020304050617273132E1
:1003F00033343536FF0102030405162736414243E4
:100400004445FF010203040506172425263741420F
:1004100043444546FF010206071315243335414284
:100420004647FF01021324252627334142FF0106D8
:1004300007111517212427313337414247FFB204F2
:1004400000000000000000000000B70400000000F1
:1004500000000000BA04000000000000BC04C90451
:10046000D004DC04E804F204FE040B0513052105A6
:1004700000000000000000000000000000002E0549
:10048000390544054C05570563056D057A05860554
:100490008C0594059F05A705B505C305CC05D505B5
:1004A000E205ED05F505FD05070610061E06280602
:1004B000300600010204FF0001FF04FF00010203F7
:1004C0000414242322212010FF011011121314FF01
:1004D0000010202122120203041424FF0010202106
:1004E00022120223041424FF0001021220212223DD
:1004F00024FF0010200122120223041424FF001004
:1005000020012212022304142403FF0010202122C0
:100510002324FF01001020212212020304142423AB
:10052000FF010010202122120204142423FF1001D5
:100530000203041221222324FF00010203041021DC
:10054000122314FF20100102031424FF00010203F0
:10055000041021222314FF000102030410201222A0
:100560001424FF000102030410201222FF30201087
:10057000010203142434333222FF00010203041267
:100580002021222324FF0001020304FF031424235B
:10059000222120FF00010203041220212324FF0056
:1005A000010203041424FF0001020304112231405C
:1005B00041424344FF00010203041122233031323F
:1005C0003334FF1001020314232221FF0001020330
:1005D00004102112FF01020314243423333231208A
:1005E00010FF00010203041021122324FF20100138
:1005F00012231404FF00102011121314FF00010233
:10060000031423222120FF0001021314222120FFC2
:1006100000010213142221203334424140FF000123
:1006200012030420212324FF00011213142120FFB0
:10063000001020211203041424FF11241FBECFEF49
:10064000D0E1DEBFCDBF84B78093340714BE98E1FC
:100650000FB6F89490936000109260000FBE83FB79
:10066000992790F990933007982F917090933307C2
:10067000869581708093320712E0A0E0B1E0E4EF4C
:10068000FBE302C005900D92A83FB107D9F717E030
:10069000A8EFB2E001C01D92A332B107E1F70E94BA
:1006A00098160C94F81D0C94000091E0909373043C
:1006B000882319F080917304FBCF08959DE0981B67
:1006C000E8E0E61B442321F08091740481FF47E0B9
:1006D0005EE0E59FF0011124E90FF11DEE0FFF1F11
:1006E000EE55FF4F249181E090E002C0880F991FE2
:1006F0002A95E2F73196E49157E0E59F90011124A5
:10070000220F331FE0911F03F0912003E20FF31F2C
:10071000DF0150E008C02D913C911197282B392B17
:100720002D933D935F5F5413F6CFE50FF11DE50F59
:10073000F11D8095909507C02081318128233923B0
:10074000219331935F5F5730B8F308951F93CF9390
:10075000DF93D82F162FC0E0412F6C2F8D2F0E94D2
:100760005E03CF5FC930C1F7DF91CF911F9108952C
:100770001F93CF93DF93D82F162FC0E0412F6D2FFB
:100780008C2F0E945E03CF5FCE30C1F7DF91CF91F7
:100790001F9108951F93CF93DF93182FD0E00BC0C4
:1007A000412F6C2F8D2F0E945E03CF5FC930C1F7A0
:1007B000DF5FDE3011F0C0E0F3CFDF91CF911F910A
:1007C0000895CF92DF92EF92FF921F93CF93DF9322
:1007D000CDB7DEB760970FB6F894DEBF0FBECDBFC2
:1007E000889FF0011124389674E0F695E7957A9584
:1007F000E1F79F01A4E0B1E00E94F7186B017C01D2
:100800009E012F5F3F4F80E1D9011D928A95E9F744
:100810009F01A8E7BEE10E94F718A4E1969587958D
:1008200077956795AA95D1F77C836B83ACEABCE694
:100830000E94F718B4E19695879577956795BA95D4
:10084000D1F77E836D83A8E7B1EE0E94F71814E11B
:1008500096958795779567951A95D1F778876F83E1
:10086000DF0124ED3AE741E050E00E94031924E162
:1008700096958795779567952A95D1F77A876987B1
:1008800028EB36E342E050E00E94031934E19695EC
:100890008795779567953A95D1F77C876B872CE19B
:1008A00033E143E050E00E94031944E196958795B7
:1008B000779567954A95D1F77E876D875AE0F694CC
:1008C000E794D794C7945A95D1F7B601D88ACF86C2
:1008D00080911C038111FCCFE091F802F091F902A4
:1008E000CE0101966F017E01BFE0EB0EF11C12E01C
:1008F000AC010296DA0112962D913C9113974D911D
:100900005C91241B350B11F0219501C02FEFD6010E
:100910002D936D0117961C938E159F0549F79B012A
:10092000359527953595279581E490E0821B930BAB
:1009300011F0819501C08FEF878383E087878091D5
:100940007504811109C0A091FA02B091FB0280E107
:1009500001900D928A95E1F781E080931C036096E7
:100960000FB6F894DEBF0FBECDBFDF91CF911F91C0
:10097000FF90EF90DF90CF90089590916E009C7F54
:1009800090936E0094B59C7F94BD95B5977F95BD6F
:10099000809374041092730480FF03C08BEC93E087
:1009A00002C083E293E09093200380931F0383E2CD
:1009B00093E0909322038093210390931E038093EE
:1009C0001D0310921C038CE093E09093F902809336
:1009D000F8028CEF92E09093FB028093FA028FE78B
:1009E0000E94E10380916E00816080936E0082E03E
:1009F00085BD8FEF86BD81E08093750408951F92B9
:100A00000F920FB60F9211242F933F934F938F9312
:100A10009F93EF93FF934FB7F894E091FA02F09110
:100A2000FB0220917604E20FF11D808585BD808157
:100A300086BD8091770486B98091780490E08F70AC
:100A4000992783B917B884B1807F84B981E090E099
:100A50000090790402C0880F991F0A94E2F79093DE
:100A6000780480937704273060F4E0911D03F091BF
:100A70001E0321913191F0931E03E0931D03822BFD
:100A8000932B88B925B1207F292B25B987B984B14B
:100A9000807F892B84B98091770486B9809178040E
:100AA00090E08F70992783B9809176048F5F80934F
:100AB0007604883008F43FC010927604809179045F
:100AC0008F5F809379048C30B0F11092790480911B
:100AD0007304882391F01092730480912103909104
:100AE000220320911F03309120033093220320938F
:100AF00021039093200380931F0380911C0388237C
:100B000091F010921C038091FA029091FB022091C7
:100B1000F8023091F9023093FB022093FA0290938D
:100B2000F9028093F802809121039091220390931F
:100B30001E0380931D034FBFFF91EF919F918F91F3
:100B40004F913F912F910F900FBE0F901F901895CE
:100B5000CF93C82F1CBC9091640094609093640064
:100B600060E080910401909105010E949E0B61E07C
:100B700080910201909103010E949E0B60E08091A0
:100B80000001909101010E949E0B60E080910201A2
:100B9000909103010E94E00B90916C0090689093FB
:100BA0006C0090916800926090936800CC2311F0E3
:100BB00082E801C08EE780937A04CF910895209156
:100BC0007E0430E080917F04281B3109C90108951B
:100BD0000E94DF05892B39F0E0917F04F0E0E058B6
:100BE000FB4F8081089580E00895CF93C82F0E9425
:100BF000DF05892BD1F090917F04E92FF0E0E058D8
:100C0000FB4F80819F5F90937F042FB7F894909162
:100C10007F0430917E04931306C0953620F0109225
:100C20007F0410927E042FBF18C0C11108C080E05D
:100C300014C08FEC97E00197F1F700C0000090918D
:100C40007F0480917E048917A1F3E92FF0E0E0583A
:100C5000FB4F80819F5F90937F04CF9108951F92F7
:100C60000F920FB60F9211242F933F934F935F93E0
:100C70006F937F938F939F93AF93BF93CF93EF9394
:100C8000FF9380910001909101010E94120CC82FE6
:100C900080917D048C1709F443C0CC2309F440C033
:100CA00080917B04880F80937B0480910401909154
:100CB00005010E94120C882329F080917B04816039
:100CC00080937B0420917A0480910201909103012A
:100CD00027FF02C061E001C060E00E94E00B80914C
:100CE0007A04880F80937A0490917C049F5F90939C
:100CF0007C049830A9F410927C0480917E04E82F43
:100D0000F0E0E058FB4F90917B0490838F5F8093DD
:100D10007E048091060180937A048EE78093060119
:100D2000C0937D04FF91EF91CF91BF91AF919F91BF
:100D30008F917F916F915F914F913F912F910F9084
:100D40000FBE0F901F9018951F920F920FB60F9223
:100D500011248F939F93EF93FF939EB5809106018B
:100D60008EBD8EE78093060180917E04E82FF0E02F
:100D7000E058FB4F90838F5F80937E04FF91EF914B
:100D80009F918F910F900FBE0F901F901895FC01AF
:100D9000A0E8B6E0819191918D939D9386E0A23970
:100DA000B807C1F7089590930901809308018EE078
:100DB00080930701109296061092950608959093DD
:100DC0000901809308011092070110929606109273
:100DD00095060895CF93C0E060E08C2F0E94B80381
:100DE000CF5FC530C9F7CF910895CF92DF92EF92D0
:100DF000FF920F931F93CF93DF93C82FC62E80359A
:100E0000C0F5682F70E080E090E00E94881420E038
:100E100030E040E251E40E94F71120E030E048EC7D
:100E200052E40E94DC12D62EE72EF82E092F902FC6
:100E30000E94A4190E941210162F70E080E090E02A
:100E40000E94DD139B01AC016D2D7E2D8F2D902F07
:100E50000E94C711D1E020E030E040E05FE30E9453
:100E60007F1318160CF0D0E01830C0F407E0011B17
:100E70002AC000E08435A0F08835A0F08B35A0F0C2
:100E80008F35A0F08236A0F08436A0F08736A0F02F
:100E90008936A0F08837A8F41CE014C000E013C025
:100EA00018E010C018E00BC019E00CC019E007C032
:100EB0001AE008C01AE003C01BE004C01BE0D1E048
:100EC00002C01EE0D0E080919406EE24E394181353
:100ED00005C080919306D81301C0E12C9C2F925637
:100EE000809192069730B8F5813019F4EE2009F41C
:100EF00084C081E0809392060E94EA0683E50E9406
:100F0000D40D27E0AC0160E070E080E090E00E944A
:100F1000D00984E50E94D40D27E0AC0160E070E0C8
:100F200084E090E00E94D0098FE40E94D40D27E075
:100F3000AC0160E070E087E090E00E94D00980E5BD
:100F40000E94D40D27E0AC0160E070E08BE090E0FF
:100F50000E94D0097BC0C93648F0823019F4EE20D7
:100F600009F44BC082E08093920607C0811103C050
:100F7000EE2009F442C0109292060E94EA0666C072
:100F8000C0E047E066E08C2F0E945E0347E067E028
:100F90008C2F0E945E0347E068E08C2F0E945E0366
:100FA000CF5FC113EECFDD2381F043E066E0812FF8
:100FB0000E945E0343E067E0812F0E945E0343E0EE
:100FC00068E0812F0E945E031F5F1E30A0F4C12FD6
:100FD000CF5FCE3081F040E066E08C2F0E945E0350
:100FE00040E067E08C2F0E945E0340E068E08C2FB9
:100FF0000E945E03EDCFEE24E39460E085E00E9462
:10100000B8031A3078F4402F66E08AE00E945E034D
:10101000402F67E08AE00E945E03402F68E08AE08C
:101020000E945E0347E065E08AE00E945E03EE20D6
:1010300081F0C1100EC081E0DF91CF911F910F911F
:10104000FF90EF90DF90CF900C945503111198CF43
:10105000AACFDF91CF911F910F91FF90EF90DF907A
:10106000CF9008958F929F92AF92BF92CF92DF92CE
:10107000EF92FF920F931F93CF93DF9300E816E058
:10108000C12C8DE0D82EEE24E394F12CF801819050
:1010900091908F01A12CB12CCDE0D0E08D2D8C1B37
:1010A000A7010C2E02C0440F551F0A94E2F76627D1
:1010B00057FD6095762F482159216A217B21452BC8
:1010C000462B472B11F047E001C040E06C2D0E94F9
:1010D0005E03219718F7C394F9E0CF12D7CF81E0D0
:1010E000DF91CF911F910F91FF90EF90DF90CF9004
:1010F000BF90AF909F908F900C945503CF92DF924A
:10110000EF92FF920F931F93CF93DF9381E00E94A2
:10111000F505D82EE82EF12CC70101960E94201A61
:10112000C82FD92FCC2E0C2F192F07C081E00E9479
:10113000F505F80181938F01A895802F8C198D15E5
:10114000A8F3FE01EE0DFF1D8081882391F110822E
:101150000E94DF05892B81F48FE19EE40197F1F76E
:1011600000C000000E94DF05892B31F4EFE3FCE9A9
:101170003197F1F700C000000E94DF05892BB9F01C
:101180000E94E805811113C081E00E94F50511C09D
:101190000E94BB1AD0930901C09308018EE080938E
:1011A0000701109296061092950681E009C080E032
:1011B00007C08091080190910901009749F7EACF93
:1011C000DF91CF911F910F91FF90EF90DF90CF9023
:1011D0000895DF92EF92FF920F931F93CF93DF93C7
:1011E000EC01E62EF090070110919506662329F098
:1011F0000E94EA06D12E0F2D38C080E00E94CA035B
:10120000F9CF2D2D332727FD3095AC2FBD2FFD01B4
:1012100001900020E9F73197EA1BFB0B2E173F07DF
:10122000D0F4FE01E20FF31F8081EE2019F00E943E
:10123000D40D02C00E94B80D60919606772767FD15
:10124000709527E0AC01802F992787FD90950E942B
:10125000D009080F05C0EE2011F00C5F01C00B5F34
:10126000D394101614F01D2DF02E0E3054F281E0A0
:101270000E945503FA94F092070110939506AC2F43
:10128000BD2FFD0101900020E9F73197EA1BFB0B10
:10129000812F992787FD90958E179F0729F481E06C
:1012A0001F141CF080E001C081E0DF91CF911F91FD
:1012B0000F91FF90EF90DF900895682F80910801C3
:1012C00090910901009711F00C94E90880E00895CD
:1012D0000F931F93CF93DF93CDB7DEB72A970FB647
:1012E000F894DEBF0FBECDBF1F928F9384EF92E0C4
:1012F0009F938F938E010F5F1F4F1F930F930E9439
:10130000571BC8010E94DF0680E00E945D090F9014
:101310000F900F900F900F900F902A960FB6F894A1
:10132000DEBF0FBECDBFDF91CF911F910F9108950A
:1013300080917802909179020E94120C8093C606E7
:1013400080917602909177020E94120C8093C506DC
:1013500080917402909175020E94120C8093C406D1
:101360002091C6069091BD02222311F0986001C021
:10137000977F9093BD022091C5069091BD022223D4
:1013800011F0946001C09B7F9093BD029091BD02CB
:10139000882311F0926001C09D7F9093BD02089553
:1013A000AF92BF92DF92EF92FF920F931F93CF9372
:1013B000DF931F92CDB7DEB78C017B014F30510513
:1013C00010F4842F37C04115510599F15A018FEF60
:1013D000A81AB80AFA014491D12C26C0A42FB0E073
:1013E00084E0B595A7958A95E1F78A2FDA1608F477
:1013F000DA2EA00FB11F1E9790F4E42FEF70D701E3
:10140000AE0FB11DA930B10554F4B7FD08C06E2F61
:101410006E0D422F800F29830E945E032981F50102
:101420008FEFA81AB80A44914F3FC1F68D2D8E5FF9
:1014300001C080E00F90DF91CF911F910F91FF903D
:10144000EF90DF90BF90AF9008958F929F92AF92F0
:10145000BF92CF92DF92EF92FF920F931F93CF93A1
:10146000DF931F92CDB7DEB78C017B014F30510562
:1014700010F4842F40C04115510509F43BC04A01C6
:101480008FEF881A980AFA018491B12C37E0C32EA5
:10149000D12C47E0A42EA00E28C0A82FB0E094E0E5
:1014A000B595A7959A95E1F76A2F8F70BA1608F44B
:1014B000BA2EF601E81BF109E00FF11F3E9780F408
:1014C000AE0DBF1DA930B1055CF4B7FD09C06E0DAE
:1014D000422FFA2DF81B8F2F29830E945E0329814A
:1014E000F4018FEF881A980A84918F3FB1F68B2D03
:1014F0008E5F01C080E00F90DF91CF911F910F911F
:10150000FF90EF90DF90CF90BF90AF909F908F9023
:101510000895CF9380918802909189020E94390C9E
:101520009093D2068093D106969587959695879548
:101530008093D006873DA0F4893CA0F4853BA0F4BD
:10154000883AA0F41AC08091D5068C17E9F06C2F68
:1015500070E080917E020E94780CC093D50614C082
:10156000CFEF05C0C8EC03C0C6E901C0C4E6809156
:10157000BD0280628093BD02E6CF8091BD028F7D67
:101580008093BD02C0E0DFCFCF91089560E08091ED
:101590008802909189020E949E0B61E080918602F0
:1015A000909187020E949E0B61E08091860290914B
:1015B00087020E94E00B62E0809186029091870290
:1015C0000E949E0B61E080918402909185020E94AE
:1015D0009E0B61E080918202909183020E949E0B9B
:1015E00061E080918002909181020E949E0BF894AC
:1015F000EAE7F0E0808180688083E0EBF0E08081C2
:1016000081608083E1EBF0E0808181608083789469
:101610000895882361F09091CF06911108C0209120
:10162000CD063091CE0630937D0220937C028093CC
:10163000CF0608958091C7069091C80608958091BD
:10164000CC060895CF93DF93809186029091870214
:101650000E94120C8093CC069091CF06992309F436
:1016600051C0882389F02091CB0680917C02909113
:101670007D02211104C09093CA068093C9069093FD
:10168000C8068093C7064AC00E94980EEB0180915D
:10169000D3069091D4069E01281B390BC901853FC2
:1016A0009140E0F180917C0290917D020596813518
:1016B00091050CF402C080E590E090937D02809348
:1016C0007C0260917C0270917D0280917F020E9479
:1016D000780C61E080918402909185020E94E00B79
:1016E0008FE39CE90197F1F700C0000060E0809172
:1016F0008402909185020E94E00BD093D406C0939F
:10170000D3060CC0882351F010927D0210927C0207
:1017100060E070E080917F020E94780C9091CC068E
:101720009093CB068091BD02992311F0806101C096
:101730008F7E8093BD02DF91CF910895CF93492F83
:1017400050E021E030E001C0220F9A95EAF7722FB5
:1017500090E09C01220F331FF901E855FD4F0190E5
:10176000F081E02DD901A056BD4F0D90BC91A02D68
:10177000CFB7F894611108C030817095372330835A
:101780003C9137233C930EC0623049F43081272FBF
:101790002095232320832C91272B2C9303C0208179
:1017A000272B2083CFBFFC0183E0EE0FFF1F8A951C
:1017B000E1F7E40FF51FEA52F94F6083CF910895E6
:1017C00021E030E001C0220F9A95EAF7E82FF0E01F
:1017D000EE0FFF1FE056FD4F0190F081E02D9FB707
:1017E000F8948081611104C020952823208302C0D1
:1017F000822B80839FBF0895E82FF0E0EE0FFF1F3C
:10180000E856FD4F0190F081E02D408121E030E06D
:10181000092E01C0220F0A94EAF7422381E009F45D
:1018200080E00895492F21E030E001C0220F9A9511
:10183000EAF790E0FC0133E0EE0FFF1F3A95E1F785
:10184000E40FF11DEA52F94F3081880F991FFC0116
:10185000E856FD4F0190F081E02D9081922381E0C8
:10186000323019F4992321F002C0911101C080E0B7
:101870000895811114C0977090937C0080917A0034
:10188000806480937A0080917A0086FDFCCF8091FD
:10189000780090917900392F20E0282B02C020E0B9
:1018A00030E0C9010895843099F028F4823041F085
:1018B0008330E9F409C0853089F08630C1F412C064
:1018C00084B58F7D84BD0895809180008F7703C09B
:1018D000809180008F7D8093800008958091B0007A
:1018E0008F7703C08091B0008F7D8093B000089502
:1018F0001F93CF93DF93182FEB01209719F06F3FC1
:10190000710571F4812F0E94530CE12FF0E0EE0F6E
:10191000FF1FE657FD4F6C2F808191810E94E00BE5
:101920001330B1F028F4113049F01230A1F50BC09A
:10193000153011F1B8F0163071F526C084B5806805
:1019400084BDC7BD28C084B5806284BDC8BD23C026
:1019500080918000806880938000D0938900C0933C
:10196000880019C080918000806280938000D093AD
:101970008B00C0938A000FC08091B0008068809374
:10198000B000C093B30007C08091B0008062809324
:10199000B000C093B400DF91CF911F91089562E031
:1019A0008091BB029091BC020E949E0B61E08091ED
:1019B000B9029091BA020E949E0B60E070E08091A3
:1019C000B8020E94780CF894E0E8F0E08081816031
:1019D0008083E1E8F0E080818160808378940895DD
:1019E0008D3348F021E030E0309305072093040761
:1019F000809303070895809104079091050701974C
:101A000081F482E090E090930507809304070E94A0
:101A1000980E6093FF0670930007809301079093E0
:101A2000020708958091170708958091BB02909155
:101A3000BC020E94120C80930F0720910407309182
:101A40000507215031092230310578F5811131C067
:101A500080910807813069F50E94980E209109074E
:101A600030910A07AB01421B530B9A0150931107A7
:101A700040931007442737FD4095542F60E67AEED7
:101A800080E090E00E94301920930607309307070A
:101A90002093C2060E94980E6093090770930A076C
:101AA00080930B0790930C0704C0109207071092C5
:101AB000060780910407909105078130910531F068
:101AC0008230910571F0892B29F040C060910307A5
:101AD00070E002C060E070E08091B8020E94780C73
:101AE00035C06CE370E08091B8020E94780C0E94CF
:101AF000980EAB01BC014093FB065093FC0660932B
:101B0000FD067093FE068091FF0690910007A0915C
:101B10000107B0910207481B590B6A0B7B0B493830
:101B200083E15807610571056CF44D3D5540610531
:101B3000710564F080910F07811108C0809108073A
:101B4000813021F4109205071092040780910F074D
:101B50008093080780910407909105072091BD02AA
:101B6000892B11F4206401C02F7B2093BD020895BE
:101B7000803299F0982F91569A3108F48052982F1C
:101B800091529A3368F4E82FF0E0EE0FFF1FE45A09
:101B9000FE4F859194919C0105C025E030E002C084
:101BA00020E030E0C9010895803299F0982F9156D5
:101BB0009A3108F48052982F91529A3368F4E82FA2
:101BC000F0E0EE0FFF1FE450FC4F859194919C01D3
:101BD00005C023E030E002C020E030E0C9010895F4
:101BE000F8948091810087708330C9F028F48130A7
:101BF00041F0823079F416C0843031F0853051F4F0
:101C000006C061E070E010C060E071E00DC060E00F
:101C100074E00AC08091810083608093810060E459
:101C200070E002C068E070E0762F662793E076955A
:101C300067959A95E1F780E090E06093C702709312
:101C4000C8028093C9029093CA0228EE33E040E0B4
:101C500050E00E940E192093C3023093C4024093B7
:101C6000C5025093C602DC01CB0123E0B695A795CF
:101C7000979587952A95D1F78093BF029093C002DC
:101C8000A093C102B093C20280916F0081608093E3
:101C90006F00789408951F920F920FB60F9211243F
:101CA0002F933F934F935F936F937F938F939F9364
:101CB000AF93BF938091180790911907A0911A07CD
:101CC000B0911B0720911C074091C3025091C402A0
:101CD0006091C5027091C602840F951FA61FB71FA1
:101CE0003091BF02230F4091800040FD230F3091BF
:101CF000BE02231720F0231B0196A11DB11D2093C6
:101D00001C078093180790931907A0931A07B093A4
:101D10001B07BF91AF919F918F917F916F915F91C1
:101D20004F913F912F910F900FBE0F901F901895DC
:101D30000F931F938FB7F89400911807109119070C
:101D400020911A0730911B078FBFB801C9011F915D
:101D50000F910895F89461E080911D0790911E07FE
:101D60000E949E0B61E08091CD029091CE020E9474
:101D70009E0B61E08091CB029091CC020E949E0B61
:101D800080913307882371F080912C0790912D0763
:101D9000892B41F40E94980E70932D0760932C07B5
:101DA0001092260761E08091CD029091CE020E94B0
:101DB000E00B10922B0780912307811107C060E090
:101DC00080911D0790911E070E94E00B80912607CD
:101DD000811107C060E08091CB029091CC020E94FB
:101DE000E00B88E1809360008FE480936000A89509
:101DF000789408951F93CF93DF93182F0E94980E25
:101E0000EB01A895112309F444C010923307709395
:101E10002D0760932C0780912B07882349F061E000
:101E20008091CD029091CE020E94E00B10922B0780
:101E300080912707909128070097F9F010922A07C0
:101E40001092290720912607222371F0C81BD90B75
:101E5000C133D54768F060E08091CB029091CC020D
:101E60000E94E00B10922607109228071092270775
:101E70001092250710922407A9C0809129079091FC
:101E80002A07892B09F4A2C010922A071092290769
:101E90009DC080913107811199C0809133078823BB
:101EA00061F080912C0790912D079E01281B390B22
:101EB000C90180369A4E08F489C080912B078111A0
:101EC00021C080912C0790912D079E01281B390B72
:101ED000C90181319742B0F060E08091CD029091CC
:101EE000CE020E94E00B81E080932B0760E070E05F
:101EF00080917F020E94780C60E070E08091B802CF
:101F00000E94780C8091270790912807009709F488
:101F100042C020912407309125072115310599F001
:101F2000C217D30709F452C080912307882309F40C
:101F30004DC060E080911D0790911E070E94E00B4C
:101F40001092230743C09E01281B390BC90100973B
:101F5000E9F120912607222351F060E08091CB0225
:101F60009091CC020E94E00B109226072FC0813284
:101F70009E4460F161E080911D0790911E070E94D0
:101F8000E00BC456D109D0932507C093240781E004
:101F9000809323071BC080912C0790912D079E01F1
:101FA000281B390BC90181329E4480F061E0809189
:101FB000CB029091CC020E94E00BC054DC49D0933C
:101FC0002807C093270781E080932607DF91CF91F0
:101FD0001F9108951F920F920FB60F9211242F9305
:101FE0003F934F935F936F937F938F939F93AF93A1
:101FF000BF93EF93FF930E94980E70932A0760930C
:102000002907FF91EF91BF91AF919F918F917F91A0
:102010006F915F914F913F912F910F900FBE0F9055
:102020001F901895CF92DF92EF92FF920F931F931C
:102030006B017C0120E030E040E05FE40E94AE13E1
:1020400087FD0EC020E030E040E05FE4C701B6014C
:102050000E94C7110E9439148B019C01305806C0A0
:10206000C701B6010E9439148B019C01B801C90156
:102070001F910F91FF90EF90DF90CF900895A4E013
:10208000B0E0E5E4F0E10C9454197C016A01FC0134
:102090008081823008F44AC1FB019081923008F4BB
:1020A00042C1843079F4943009F040C1F701918144
:1020B000FB018181981709F439C1A5EDEA2EA2E050
:1020C000FA2E34C1943009F42EC1923091F482304A
:1020D00009F02CC188E0F701DA0101900D928A9590
:1020E000E1F7FB018181F70191818923FA01818365
:1020F0001CC1823009F417C1F70182819381FB0171
:10210000A281B381F7010481158126813781FB010A
:1021100084809580A680B780FC01EA1BFB0BAF0191
:10212000F7FF04C0442755274E1B5F0B4032510573
:102130000CF074C01E161F06B4F524013501042EE0
:1021400004C076946794579447940A94D2F74982CE
:102150005A826B827C82412C512C3201439404C000
:10216000440C551C661C771C4A95D2F741E0441A72
:10217000510861087108482059206A207B20812C71
:10218000912C5401839445284628472819F4812C22
:10219000912C540149805A806B807C80842895283A
:1021A000A628B72846C0EF2B09F443C0840F951F1B
:1021B00028013901042E04C07694679457944794FB
:1021C0000A94D2F749825A826B827C82412C512C2C
:1021D0003201439404C0440C551C661C771C4A957C
:1021E000D2F741E0441A5108610871084022512297
:1021F0006222732201E010E020E030E0452846280A
:10220000472819F400E010E0980149805A806B805B
:102210007C8004291529262937290BC0A817B9075E
:1022200024F4812C912C540104C0CD0100E010E075
:102230009801F7014181FB015181451709F446C01E
:10224000442349F024013501401A510A620A730AF5
:102250009301820104C0081919092A093B0937FDB5
:1022600005C0F6011182938382830CC041E0F60120
:1022700041839383828330952095109501951F4F5C
:102280002F4F3F4F04831583268337830EC0880F5B
:10229000991FAA1FBB1FF60184839583A683B7836A
:1022A00082819381019793838283F6018481958152
:1022B000A681B781AC01BD01415051096109710985
:1022C0004F3F5F4F6F4F7F4310F30CC0F6014183C8
:1022D00093838283080D191D2A1D3B1D04831583DA
:1022E0002683378383E0F6018083448155816681AC
:1022F000778177FF1AC0DB01CA0181709927AA276D
:10230000BB277695679557954795842B952BA62BDC
:10231000B72B84839583A683B783828193810196AB
:102320009383828302C07B0101C07601C70124969A
:10233000E0E10C947019A0E2B0E0E1EAF1E10C9464
:1023400062196D8F7E8F8F8F98A3298F3A8F4B8F55
:102350005C8FBE016F5E7F4FCE014D960E94C81507
:10236000BE01675F7F4FCE0149960E94C815AE013E
:102370004F5F5F4FBE01675F7F4FCE0141960E9466
:102380003F100E94FE14A096E2E00C947E19A0E299
:10239000B0E0EDECF1E10C9462196D8F7E8F8F8FC0
:1023A00098A3298F3A8F4B8F5C8FBE016F5E7F4F52
:1023B000CE014D960E94C815BE01675F7F4FCE01CA
:1023C00049960E94C8158A8591E089278A87AE01BF
:1023D0004F5F5F4FBE01675F7F4FCE0141960E9406
:1023E0003F100E94FE14A096E2E00C947E19A0E239
:1023F000B0E0EDEFF1E10C9454196D8F7E8F8F8F6B
:1024000098A3298F3A8F4B8F5C8FBE016F5E7F4FF1
:10241000CE014D960E94C815BE01675F7F4FCE0169
:1024200049960E94C8159989923008F412C089858E
:10243000823008F41AC0943021F4823009F4B4C018
:1024400008C0843021F4923009F4AEC00EC092303E
:1024500051F481E02A899A85291301C080E08A8B92
:10246000CE014196A3C0823051F481E02A899A8539
:10247000291301C080E08A87CE01099697C08D8814
:102480009E88AF88B88C0D851E852F853889E0E23F
:10249000F0E080E090E0DC01C12CD12C760140E03E
:1024A00050E0BA0180FE18C0400F511F621F731F19
:1024B0008C0D9D1DAE1DBF1D412C512C320143942E
:1024C000401751076207730718F0412C512C320155
:1024D000840D951DA61DB71DCC0CDD1CEE1CFF1C2C
:1024E00037FF02C06894C0F8000F111F221F331F6E
:1024F000B694A794979487943197A1F62B893C8939
:10250000EB85FC852E0F3F1F2E5F3F4F3C832B83B7
:1025100021E0EA893A85E31301C020E02A83EB81B8
:10252000FC810CC080FF05C076956795579547954F
:102530007068B695A795979587953196B7FDF2CFB8
:102540009F010CC0880F991FAA1FBB1F77FD8160D8
:10255000440F551F661F771F215031090097A105B1
:10256000E0E4BE0778F32B833C838C019D010F7759
:10257000112722273327003411052105310559F48D
:1025800087FD09C0452B462B472B29F0805C9F4FC8
:10259000AF4FBF4F80788D839E83AF83B88783E032
:1025A0008983CE01019602C085ED92E00E94FE145F
:1025B000A096E0E10C947019A8E1B0E0E2EEF2E13F
:1025C0000C945C196D8B7E8B8F8B988F298B3A8B3B
:1025D0004B8B5C8BBE01675F7F4FCE0145960E949F
:1025E000C815BE016F5F7F4FCE0141960E94C8158E
:1025F0009985923008F475C08981823008F474C0DE
:102600002A853A8123272A87943011F0923019F4D1
:10261000981367C06CC0843039F41D861E861F86EF
:10262000188A1C861B8604C0823029F484E08987BE
:10263000CE0109965EC08B859C852B813C81821BD7
:10264000930B9C878B874D855E856F857889CD80C0
:10265000DE80EF80F8844C155D056E057F0538F44B
:10266000440F551F661F771F01979C878B87EFE1EB
:10267000F0E000E010E020E030E480E090E0DC01F9
:102680004C155D056E057F0540F0802B912BA22B2C
:10269000B32B4C195D096E097F093695279517955F
:1026A0000795440F551F661F771F319749F78C0117
:1026B0009D010F77112722273327003411052105AB
:1026C000310559F487FD09C0452B462B472B29F0CE
:1026D000805C9F4FAF4FBF4F80788D879E87AF87BD
:1026E000B88BCE01099605C0CE01019602C085EDDA
:1026F00092E00E94FE146896E8E00C947819A8E134
:10270000B0E0E5E8F3E10C9462196D8B7E8B8F8B62
:10271000988F298B3A8B4B8B5C8BBE01675F7F4F09
:10272000CE0145960E94C815BE016F5F7F4FCE0156
:1027300041960E94C8158985823058F0898182307F
:1027400040F0BE016F5F7F4FCE0109960E943716A1
:1027500001C08FEF6896E2E00C947E19A8E1B0E02A
:10276000E4EBF3E10C9462196D8B7E8B8F8B988F69
:10277000298B3A8B4B8B5C8BBE01675F7F4FCE0101
:1027800045960E94C815BE016F5F7F4FCE014196EE
:102790000E94C8158985823058F08981823040F0C6
:1027A000BE016F5F7F4FCE0109960E94371601C0B0
:1027B0008FEF6896E2E00C947E19A8E0B0E0E3EEBB
:1027C000F3E10C94601923E029838B019C0100271D
:1027D00037FD0395112722273327402F0A836115E0
:1027E00071058105910519F482E0898335C02EE1D8
:1027F00030E03C832B83442371F061157105810522
:1028000020E8920771F1002711279801061B170B8A
:10281000280B390B02C08B019C01C901B8010E9431
:1028200089190197181619062CF00D831E832F8322
:10283000388712C0082E04C0000F111F221F331F3B
:102840000A94D2F70D831E832F8338872EE130E060
:10285000281B390B3C832B83CE0101960E94FE146A
:1028600004C060E070E080E09FEC2896E4E00C9407
:102870007C19ACE0B0E0EFE3F4E10C9460196987F7
:102880007A878B879C87BE016F5F7F4FCE01099649
:102890000E94C8158981823091F1823080F18430A4
:1028A00041F48A81882331F100E010E020E030E833
:1028B00029C02B813C8137FD22C02F3131058CF797
:1028C0008EE190E0821B930B0D811E812F81388554
:1028D00004C036952795179507958A95D2F78A8172
:1028E000882381F030952095109501951F4F2F4F2B
:1028F0003F4F08C00FEF1FEF2FEF3FE703C000E08F
:1029000010E09801B801C9012C96E4E00C947C1900
:10291000A8E0B0E0EEE8F4E10C945C198B019C01B6
:102920001A82611571058105910519F482E0898388
:102930005DC083E089834EE150E05C834B83C90135
:10294000B8010E948919019797FF39C0EE27FF2728
:10295000E81BF90B41E050E060E070E00E2E04C08F
:10296000440F551F661F771F0A94D2F74150510933
:10297000610971094023512362237323C12CD12C97
:102980007601C394452B462B472B19F4C12CD12C2F
:10299000760104C03695279517950795EA95D2F7E5
:1029A0000C291D292E293F290D831E832F8338874B
:1029B0002EE130E0281B390B3C832B8317C0009796
:1029C00029F40D831E832F83388710C0082E04C07E
:1029D000000F111F221F331F0A94D2F70D831E838D
:1029E0002F833887481B590B5C834B83CE0101969C
:1029F0000E94FE142896E8E00C9478190F931F9318
:102A0000CF93DF93DC0114964D915D916D917C9194
:102A100017971196EC9111978C91823020F4606198
:102A20008FEF90E0A6C0843009F49EC0823009F494
:102A300095C0411551056105710509F492C01296C2
:102A40002D913C91139722388FEF38070CF058C026
:102A5000C2E8DFEFC21BD30BCA31D1056CF58A0186
:102A60009B010C2E04C036952795179507950A945F
:102A7000D2F781E090E0A0E0B0E00C2E04C0880F17
:102A8000991FAA1FBB1F0A94D2F70197A109B10988
:102A900084239523A623B72341E050E060E070E053
:102AA000892B8A2B8B2B19F440E050E0BA01402B84
:102AB000512B622B732B03C040E050E0BA01DB01C5
:102AC000CA018F779927AA27BB2780349105A105D2
:102AD000B10539F447FF09C0405C5F4F6F4F7F4F2E
:102AE00004C0415C5F4F6F4F7F4F81E090E0411524
:102AF0005105610520E4720748F580E090E026C0AA
:102B0000203831058CF5DB01CA018F779927AA2778
:102B1000BB2780349105A105B10539F447FF09C0F1
:102B2000405C5F4F6F4F7F4F04C0415C5F4F6F4F02
:102B30007F4F77FD04C0C90181589F4F07C076952C
:102B4000679557954795C90180589F4F97E07695AF
:102B50006795579547959A95D1F70BC080E090E01F
:102B600005C080E090E005C08FEF90E040E050E0CD
:102B7000BA01982F9695E0FB97F9362F80FB37F92D
:102B8000642F752F832FDF91CF911F910F9108959F
:102B9000CF92DF92EF92DC01FB01CC901196DC909A
:102BA000119712968C9112973FE7E32EE8226E2D33
:102BB000A60170E0982F991F9927991F13962C91C1
:102BC000822F880F892B90E027FB222720F9218371
:102BD000009729F5411551056105710511F482E051
:102BE00027C082E89FEF9383828327E0440F551F1D
:102BF000661F771F2A95D1F783E0808309C0440FB1
:102C0000551F661F771F828193810197938382836B
:102C100041155105610580E4780788F320C08F3F96
:102C2000910579F4411551056105710519F484E0A8
:102C3000808319C0E4FE03C081E0808310C010824D
:102C40000EC08F5791099383828383E0808387E04E
:102C5000440F551F661F771F8A95D1F77064448310
:102C6000558366837783EF90DF90CF900895CF935D
:102C7000FC01DB019081923008F452C08C918230CB
:102C800008F44EC0943071F4843039F411962C91CC
:102C900030E08181281B310948C08181882309F4F3
:102CA0003FC03BC0843029F411968C91811138C00B
:102CB00034C0923019F48230B9F735C0823069F3EC
:102CC000C18111968C911197C8131DC02281338147
:102CD00012968D919C911397821793070CF413C051
:102CE000281739070CF417C0448155816681778114
:102CF00014968D919D910D90BC91A02D84179507F0
:102D0000A607B70718F4C11108C00AC04817590729
:102D10006A077B0740F4C11103C02FEF3FEF05C0E6
:102D200021E030E002C020E030E0C901CF910895F9
:102D3000CF93DF93CDB7DEB72A970FB6F894DEBFF7
:102D40000FBECDBF61E080917A0290917B020E941C
:102D50009E0B62E080917802909179020E949E0B16
:102D600062E080917602909177020E949E0B62E071
:102D700080917402909175020E949E0B0E94CF0C6C
:102D80000E94C60A0E94F00D83E00E94BD0480E00C
:102D90000E94CA0380E00E945503809130070E9480
:102DA000A80580E885BF85BF80913207882329F078
:102DB00080912E078F5F80932E07809130078823A4
:102DC00029F080912F078111109230076091300710
:102DD00060932F0780917A0290917B020E94E00B12
:102DE0001092300780912E071F928F9383EF92E00D
:102DF0009F938F938E010F5F1F4F1F930F930E941E
:102E0000571BC8010E94DF0680E00E945D092FE782
:102E100038E381E0215030408040E1F700C00000FD
:102E200083E00E94CA0381E00E9455039FEFE0E720
:102E3000F2E09150E040F040E1F700C0000080E097
:102E40000E94CA0381E00E9455030F900F900F90DB
:102E50000F900F900F9080913307882371F080E0DE
:102E60000E94CA0381E00E9455038DED92E00E940A
:102E7000D30684E08093C10606C080E692E00E94FB
:102E8000C7060E9432080E94AA0E14E829E0C22E4A
:102E90003CE9F32E4CE8E42E56E0D52E0E94150DA9
:102EA0000E94220B0E94890A0E9498090E94DF0555
:102EB000892B09F438C181E00E94FA0E81E00E945A
:102EC000F505082FE82FF0E0E331F10508F028C1FF
:102ED000E25CFF4F0C944C198091BD028093060177
:102EE0008EE492E061C180E00E94CA0381E00E940A
:102EF00055031092C10668C181E00E94F505A895AE
:102F00000E94F00C81E0809306018CE392E04CC1BA
:102F100081E00E94F505A8950E94090B81E080934D
:102F200006018AE292E040C18091C20680930601C8
:102F30008CE191E039C181E00E94F5058093C306E0
:102F4000A895682F80917A0290917B020E94E00BF5
:102F500081E0809306018CEA91E026C181E00E9425
:102F6000F505A82EA89561E0073009F060E08A2DEC
:102F70000E94F506A092C006073031F081E08093F0
:102F80000601D092C1068ACF0E947E088823E1F014
:102F9000043011F480E001C081E00E945D090E94CC
:102FA000980E6093A9067093AA068093AB0690933F
:102FB000AC06073019F481E08093BF0681E080936E
:102FC00006010093C1066ACFE092060167CF912CFB
:102FD0000E94DF050297D0F081E00E94F505A92C40
:102FE000B12CAA0CBB1C2DEA36E0A20EB31EF501D3
:102FF0001082818381E00E94F505F50120813181F5
:10300000282B318320839394A89506C08FEC97E0FA
:103010000197F1F700C0000098E09915C8F60E94EA
:10302000DF05892B81F4EFE1FEE43197F1F700C071
:1030300000000E94DF05892B31F48FE39CE90197A2
:10304000F1F700C000000E94DF05892B09F4C0C021
:103050000E94E805882309F4ACC0BAC081E00E9450
:10306000F505893921F0823231F0B12C06C0B12C3E
:10307000AA24A39403C0BB24B394A12C81E00E9492
:10308000F5058B3009F04CC081E00E94F505AA20BF
:1030900019F0893941F4A7C0BB2041F0823229F4EC
:1030A000BB24B39403C0A12C01C0B12C81E00E94C9
:1030B000F505811135C0AA2021F081E08093310708
:1030C00084C0BB2069F1109231077EC080910D074A
:1030D0008093060188E891E067C08091D0068093D4
:1030E000060186E791E060C08091D50680930601D5
:1030F0008EE291E059C080917C028093060184E6C3
:1031000091E052C0809108078093060182E591E02A
:103110004BC0809106078093060180E491E044C093
:1031200010930601BBCE80E00E94FA0E8091C1068A
:103130008430C0F1863068F08730A1F58091BF06F9
:10314000882339F061E08091C0060E94F506109254
:10315000BF060E94980E8090A9069090AA06A090A3
:10316000AB06B090AC06681979098A099B096932E7
:10317000710581059105B0F00E94980E6093A90633
:103180007093AA068093AB069093AC0681E0909171
:10319000C106943009F480E00E945D09811102C0EB
:1031A0001092C10687E996E00E94C7060E94320885
:1031B00075CE80E00E94F5058DEA96E00E94C70674
:1031C0000E943208C092C10681E08093060166CE5B
:1031D0008DEA96E00E94C7060E943208C092C1069E
:1031E000F09206015BCEB12CAA24A3945FCFA29FDC
:1031F000B001B39FC001A39F01D0B29F700D811D8C
:103200001124911D08950E94F718A59F900DB49F59
:10321000900DA49F800D911D11240895A1E21A2EF6
:10322000AA1BBB1BFD010DC0AA1FBB1FEE1FFF1F6A
:10323000A217B307E407F50720F0A21BB30BE40BBA
:10324000F50B661F771F881F991F1A9469F7609501
:103250007095809590959B01AC01BD01CF010895BB
:10326000052E97FB16F4009407D057FD0DD00E9451
:103270000E1907FC09D07EF49095809570956195A4
:103280007F4F8F4F9F4F08955095409530952195D2
:103290003F4F4F4F5F4F0895EE0FFF1F0590F49182
:1032A000E02D09942F923F924F925F926F927F92FE
:1032B0008F929F92AF92BF92CF92DF92EF92FF9246
:1032C0000F931F93CF93DF93CDB7DEB7CA1BDB0BF2
:1032D0000FB6F894DEBF0FBECDBF09942A88398897
:1032E00048885F846E847D848C849B84AA84B9849E
:1032F000C884DF80EE80FD800C811B81AA81B981AA
:10330000CE0FD11D0FB6F894DEBF0FBECDBFED01BD
:1033100008950E94921984FF0895CB010E9492198A
:10332000805F0895AA27992329F4A85F982B11F4A8
:1033300080E10895903118F4AD5F9295A395990FAF
:10334000E8F78A2F992708953BD080F09F3740F403
:1033500091110EF04DC060E070E080E89FEB0895A1
:1033600026F41B16611D711D811D01C01BC0882321
:1033700071F4772321F09850872B762F07C06623AE
:1033800011F499270DC09051862B70E060E02AF06F
:103390009A95660F771F881FDAF7880F969587959D
:1033A00097F908959F3F31F0915020F487957795D4
:1033B0006795B795880F911D9695879597F908950C
:1033C00025D0A0F0BEE7B91788F4BB279F3860F47A
:1033D0001616B11D672F782F8827985FF7CF86952F
:1033E00077956795B11D93959639C8F30895E8943C
:1033F000BB2766277727CB0197F9089557FD90588B
:10340000440F551F59F05F3F71F04795880F97FBA8
:10341000991F61F09F3F79F0879508951216130662
:103420001406551FF2CF4695F1DF08C01616170691
:103430001806991FF1CF86957105610508940895C6
:103440000F931F93CF93DF938230910510F482E0A6
:1034500090E0E0912107F091220720E030E0C0E009
:10346000D0E023C04081518148175907A8F0481780
:10347000590761F482819381209719F09B838A8395
:103480002EC0909322078093210729C02115310572
:1034900029F04217530710F0A90102C0BE01DF0155
:1034A00002811381EF019A01F8013097D9F62115B5
:1034B000310509F1281B390B2430310590F412969F
:1034C0008D919C9113976115710521F0FB019383F8
:1034D000828304C09093220780932107FD013296D6
:1034E00044C0FD01E20FF31F8193919322503109F3
:1034F0002D933C933AC020911F0730912007232B36
:1035000041F42091D1023091D202309320072093D0
:103510001F072091CF023091D0022115310541F4CF
:103520002DB73EB74091D3025091D402241B350BE6
:10353000E0911F07F0912007E217F307A0F42E1B7C
:103540003F0B2817390778F0AC014E5F5F4F241707
:10355000350748F04E0F5F1F5093200740931F0719
:103560008193919302C0E0E0F0E0CF01DF91CF9131
:103570001F910F910895EF92FF920F931F93CF9396
:10358000DF93009709F48EC0DC01129713961C920A
:103590001E921297E0902107F0902207E114F104A7
:1035A00089F42D913C911197280F391F80911F07A5
:1035B000909120078217930789F5B0932007A09375
:1035C0001F0770C0E70120E030E001C0EA01CA1720
:1035D000DB0738F44A815B819E0141155105B1F743
:1035E00022C0AC0142505109FA01D383C283008149
:1035F0001181BC01600F711F6C177D0761F4688138
:103600007981600F711F6E5F7F4F718360836A8164
:103610007B81738362832115310529F4B0932207DE
:10362000A09321073FC0F901B383A283E901499127
:103630005991C40FD51FAC17BD0771F4DC019E91E1
:103640008E91840F951F02969183808312968D919F
:103650009C91139793838283A0E0B0E002C0D701CE
:103660007C01F701828193810097C9F7C701029617
:1036700020813181820F931F20911F0730912007F5
:103680002817390779F4109729F41092220710921D
:10369000210704C013961C921E921297F0922007E5
:1036A000E0921F07CDB7DEB7E6E00C947A19A0E1EF
:1036B000B0E0EDE5FBE10C9460190F89188D86E010
:1036C0008C831A8309838FEF9FE79E838D83AE01DE
:1036D000455E5F4F588B4F87698D7A8DCE0101967D
:1036E0000E947B1BEF81F885E00FF11F108260962E
:1036F000E4E00C947C19ACE0B0E0E1E8FBE10C9470
:1037000052197C016B018A01FC01178216828381A8
:1037100081FFC7C188248394912C8C0E9D1EF701D4
:103720009381F60193FD859193FF81916F01882329
:1037300009F4B3C1853239F493FD859193FF8191EA
:103740006F01853229F4B70190E00E946E1DE7CF2A
:10375000712C312C20E02032A8F48B3261F028F457
:10376000803251F0833271F40BC08D3239F08033E6
:1037700049F4216028C02260246025C0286023C04D
:10378000206121C027FD27C0382F30533A3078F40C
:1037900026FF06C0FAE07F9E300D1124732E13C061
:1037A0008AE0389E300D1124332E20620CC08E32F8
:1037B00021F426FD72C1206406C08C3611F4206805
:1037C00002C0883641F4F60193FD859193FF819103
:1037D0006F018111C0CF982F9554933018F09052FB
:1037E000933028F40C5F1F4FFFE3F9830DC083363D
:1037F00031F0833771F0833509F05EC023C0F801E2
:10380000808189830E5F1F4F66246394712C54015D
:1038100015C02801F2E04F0E511CF801A080B180C4
:1038200026FF03C0672D70E002C06FEF7FEFC50178
:103830002C870E94631D3C0182012C856FE7262E98
:10384000222218C02801F2E04F0E511CF801A0807E
:10385000B18026FF03C0672D70E002C06FEF7FEFDD
:10386000C5012C870E94581D3C012C8550E8252E4F
:10387000222A820123FC1CC006C0B70180E290E02E
:103880000E946E1D3A94832D90E068167906A8F385
:103890000FC0F50127FC859127FE81915F01B701DB
:1038A00090E00E946E1D31103A94F1E06F1A710899
:1038B0006114710471F7EEC0843611F0893641F558
:1038C000F80127FF07C060817181828193810C5FBD
:1038D0001F4F08C060817181882777FD8095982FE0
:1038E0000E5F1F4F4FE6642E622297FF09C090952E
:1038F0008095709561957F4F8F4F9F4FF0E86F2AAD
:103900002AE030E0A4010E949A1DA82EA81844C005
:10391000853731F43FEEB32EB2222AE030E024C0E6
:1039200099EFB92EB2228F36B9F020F4883509F01C
:10393000B4C00DC0803721F0883709F0AEC002C096
:1039400020E1B22AB4FE0BC084E0B82A08C024FFEC
:1039500009C0E6E0BE2A06C028E030E005C020E14C
:1039600030E002C020E132E0F801B7FE07C060811C
:103970007181828193810C5F1F4F06C060817181CC
:1039800080E090E00E5F1F4FA4010E949A1DA82EB8
:10399000A8188FE7682E6B2066FE0BC0362D3E7F81
:1039A000A71450F464FE0AC062FC08C0362D3E7EA7
:1039B00005C0BA2C362D03C0BA2C01C0B72C34FF79
:1039C0000DC0FE01EA0DF11D8081803311F4397EB6
:1039D00009C032FF06C0B394B39404C0832F867825
:1039E00009F0B39433FD14C030FF0FC07A2CB31428
:1039F00060F4730C7B18B32C08C0B70180E290E030
:103A00003C870E946E1DB3943C85B314B0F304C090
:103A1000B31410F43B1801C0312C34FF12C0B701AD
:103A200080E390E03C870E946E1D3C8532FF1EC003
:103A300031FF03C088E590E002C088E790E0B7015D
:103A40000CC0832F867891F031FD02C080E201C066
:103A50008BE237FD8DE2B70190E00E946E1D06C03B
:103A6000B70180E390E00E946E1D7A94A714C0F322
:103A7000AA94F401EA0DF11DB701808190E00E9443
:103A80006E1DA110F5CF06C0B70180E290E00E9444
:103A90006E1D3A943110F8CF42CEF701268137815E
:103AA00002C02FEF3FEFC9012C96E2E10C946E1992
:103AB000FC010590615070400110D8F780959095F9
:103AC0008E0F9F1F0895FC016150704001900110FE
:103AD000D8F7809590958E0F9F1F08950F931F9391
:103AE000CF93DF938C01EB018B8181FD03C00FEF3E
:103AF0001FEF1AC082FF0DC02E813F818C819D81F6
:103B00002817390764F4E881F9810193F983E88380
:103B100006C0E885F985802F0995892B41F78E81AC
:103B20009F8101969F838E83C801DF91CF911F9162
:103B30000F910895FA01AA27283051F1203181F11F
:103B4000E8946F936E7F6E5F7F4F8F4F9F4FAF4FA5
:103B5000B1E03ED0B4E03CD0670F781F891F9A1FB8
:103B6000A11D680F791F8A1F911DA11D6A0F711D6C
:103B7000811D911DA11D20D009F468943F912AE078
:103B8000269F11243019305D3193DEF6CF01089560
:103B9000462F4770405D4193B3E00FD0C9F7F6CF91
:103BA000462F4F70405D4A3318F0495D31FD405259
:103BB000419302D0A9F7EACFB4E0A69597958795EF
:103BC00077956795BA95C9F70097610571050895CE
:103BD0009B01AC010A2E069457954795379527957A
:103BE000BA95C9F7620F731F841F951FA01D089512
:043BF000F894FFCF77
:103BF4000107010601057E0EDD02AA2A5515AA2A2F
:103C04005515AA2A5515AA2A5515AA2AFF3F003C7C
:103C14000000000000000000000000000000FF3F62
:103C24000038000000000000000000000000000058
:103C3400FF3F003000000000000000000000000012
:103C44000000FF3F00200000000000000000000012
:103C540000000000FF3F0000000000000000000022
:103C6400000000000000FE3F000000000000000013
:103C74000000000000000000FC3F00000000000005
:103C840000000000000000000000F83F00000000F9
:103C9400000000000000000000000000F03F0000F1
:103CA4000000000000000000000000000000E03FF1
:103CB4000000000000000000000000000000000000
:103CC400C03F0000000000000000000000000000F1
:103CD4000000803F00000000000000000000000021
:103CE40000000000003F0000000000000000000091
:103CF400000000000000003E000000000000000082
:103D04000000000000000000003C00000000000073
:103D14000000000000000000000000380000000067
:103D2400000000000000000000000000003000005F
:103D3400000000000000000000000000000000205F
:103D4400000000000000000000000000000000006F
:103D54000000980D980D800D980F980D980D980DF2
:103D640000000304000700060303000332000506F5
:103D74000307030603040005000101030103010412
:103D8400030503040307030620002300260029007B
:103D94002200250028002B002100240027002A00EF
:103DA400E803000001F4012A0303050002017D0673
:103DB40000000002000000000800000302000400EC
:103DC4000035072000000000000000000045766573
:103DD4007279436F6F6B20697320737461727469B5
:083DE4006E6700522558000033
:00000001FF
