:100000000C94BC000C94ED000C94ED000C94ED00ED
:100010000C94ED000C94ED000C94ED000C94ED00AC
:100020000C9467010C94ED000C94ED000C94ED0021
:100030000C94ED000C94ED000C94ED000C94610315
:100040000C94ED000C94ED000C9470050C94ED00F4
:100050000C94ED000C94ED000C94ED000C94ED006C
:100060000C94ED000C94ED000C94ED000C94ED005C
:100070000C94ED000C94ED000C94ED000B030B04BC
:100080000B050B060B070B080B090B0A0B02020BE7
:100090000B01010B0B00000B0A030A040A050A06F8
:1000A0000A070A080A090A0B0A02020A0A01010AD7
:1000B0000A00000A090309040905090609070908D5
:1000C000090A090B090202090901010909000009CD
:1000D000080308040805080608070809080A080BA9
:1000E00008020208080101080800000807030704C5
:1000F0000705070607080709070A070B0702020793
:1001000007010107070000070603060406050607A6
:1001100006080609060A060B060202060601010683
:100120000600000605030504050605070508050980
:10013000050A050B0502020505010105050000057C
:10014000040304050406040704080409040A040B54
:100150000402020404010104040000040304030572
:100160000306030703080309030A030B0302020340
:10017000030101030300000311241FBECFEFD0E1F0
:10018000DEBFCDBF84B78093150314BE98E10FB6D0
:10019000F89490936000109260000FBE91E09093ED
:1001A000160383FB882780F98093170311E0A0E0F2
:1001B000B1E0EEE7FEE002C005900D92A236B10775
:1001C000D9F713E0A2E6B1E001C01D92AF30B1074C
:1001D000E1F70E942E060C943D070C940000CF938B
:1001E00080913701909138010E94B0029093630191
:1001F0008093620196958795969587958093940153
:10020000893C40F4873940F4853640F4813440F429
:10021000C0E007C0CFEF05C0C8EC03C0C6E901C00D
:10022000C4E6809164018C1741F06C2F70E08091DE
:1002300000010E94CA02C0936401CF9108951092F8
:100240001603E0E6F0E088E180838FE48083A895E0
:100250007894089520911103309112038823D9F0E6
:10026000A895232B69F01092140310921303109297
:100270001203109211031092100310920F0324C066
:100280008091130390911403892B01F110921403B0
:10029000109213030895232BC9F080910F039091BE
:1002A0001003892B11F00C94AE030E94AE03209131
:1002B000110330911203621B730B810991096132A2
:1002C0007E448105910510F00C941F0108951F9242
:1002D0000F920FB60F9211242F933F934F935F937A
:1002E0006F937F938F939F93AF93BF93EF93FF93FE
:1002F000F894A89584B78093150384B7877F84BF4B
:10030000809160008861809360001092600060E0DE
:1003100080913101909132010E94570261E08091F9
:100320000D0190910E010E94570260E070E08091F3
:1003300001010E94CA0260E070E0809102010E9407
:10034000CA028091130390911403892B69F488E108
:100350008093600088E0809360000E94AE037093F9
:100360001403609313034EC0809111039091120304
:10037000892B09F561E080912101909122010E9471
:10038000570224E53DEC8DE293E02150304080405F
:100390009040D9F700C000C0000060E080912101CA
:1003A000909122010E9457020E94AE0370931203A3
:1003B0006093110327C080910F0390911003892B44
:1003C00009F561E080916501909166010E945702F4
:1003D0002FEF39E688E1215030408040E1F700C03E
:1003E000000060E080916501909166010E945702D3
:1003F0000E94AE037093100360930F0310921403D6
:10040000109213037894FF91EF91BF91AF919F9158
:100410008F917F916F915F914F913F912F910F90AD
:100420000FBE0F901F901895CF93DF93C92FD0E088
:1004300021E030E001C0220F9A95EAF790E0AC018C
:10044000440F551FFA01E75BFE4F0190F081E02D4C
:10045000DA01AF5BBE4F0D90BC91A02D5FB7F89451
:10046000611108C030812095322330833C913223C2
:100470003C930EC0422F623041F4308120952323FB
:1004800020832C91242B2C9303C02081242B2083A8
:100490005FBFFC0183E0EE0FFF1F8A95E1F7EC0FD1
:1004A000FD1FE959FE4F6083DF91CF91089521E050
:1004B00030E001C0220F9A95EAF7E82FF0E0EE0F46
:1004C000FF1FEF5BFE4F0190F081E02D9FB7F89486
:1004D0008081611104C020952823208302C0822BD3
:1004E00080839FBF0895E82FF0E0EE0FFF1FE75CC9
:1004F000FE4F0190F081E02D408121E030E0092E97
:1005000001C0220F0A94EAF7422381E009F480E057
:100510000895492F21E030E001C0220F9A95EAF7B3
:1005200090E0FC0163E0EE0FFF1F6A95E1F7E40F36
:10053000F11DE959FE4F3081880F991FFC01E75CDE
:10054000FE4F0190F081E02D9081922381E03230C6
:1005500019F4992321F002C0911101C080E008959F
:10056000811114C0977090937C0080917A00806410
:1005700080937A0080917A0086FDFCCF809178008C
:1005800090917900392F20E0282B02C020E030E044
:10059000C90108958330B1F028F4813049F08230E8
:1005A000A1F50BC0853011F1B8F0863071F526C089
:1005B00084B5806884BD67BD089584B5806284BDBC
:1005C00068BD08958091800080688093800070935A
:1005D00089006093880008958091800080628093F4
:1005E000800070938B0060938A0008958091B00022
:1005F00080688093B0006093B30008958091B0004C
:1006000080628093B0006093B4000895F894809164
:10061000810087708330C9F028F4813041F0823046
:1006200079F416C0843031F0853051F406C061E0B1
:1006300070E010C060E071E00DC060E074E00AC0DE
:100640008091810083608093810060E470E002C04B
:1006500068E070E0762F662793E0769567959A9527
:10066000E1F780E090E060935A0170935B01809322
:100670005C0190935D0128EE33E040E050E00E9481
:100680001B07209356013093570140935801509314
:100690005901DC01CB0123E0B695A7959795879585
:1006A0002A95D1F78093520190935301A09354015E
:1006B000B093550180916F00816080936F007894B2
:1006C00008951F920F920FB60F9211242F933F930C
:1006D0004F935F936F937F938F939F93AF93BF934A
:1006E0008091870190918801A0918901B0918A0140
:1006F00020918B0140915601509157016091580112
:1007000070915901840F951FA61FB71F3091520198
:10071000230F4091800040FD230F3091510123179A
:1007200020F0231B0196A11DB11D20938B01809306
:10073000870190938801A0938901B0938A01BF91AA
:10074000AF919F918F917F916F915F914F913F9169
:100750002F910F900FBE0F901F9018950F931F931E
:100760008FB7F89400918701109188012091890139
:1007700030918A018FBFB801C9011F910F9108956F
:1007800091E090938D01882319F080918D01FBCF2A
:100790000895442321F090918E0191FF47E05EE09F
:1007A000659FF0011124E80FF11DEE0FFF1FE458C3
:1007B000FF4F249181E090E002C0880F991F2A9595
:1007C000E2F73196E49157E0E59F90011124220F62
:1007D000331FE091B501F091B601E20FF31FDF0185
:1007E00050E008C02D913C911197282B392B2D9367
:1007F0003D935F5F5413F6CFE50FF11DE50FF11D3B
:100800008095909507C02081318128233923219339
:1008100031935F5F5730B8F308951F93CF93DF9301
:10082000D82F162FC0E0412F6C2F8D2F0E94C903A7
:10083000CF5FC930C1F7DF91CF911F9108951F930A
:10084000CF93DF93D82F162FC0E0412F6D2F8C2F21
:100850000E94C903CF5FCE30C1F7DF91CF911F91C6
:1008600008951F93CF93DF93182FD0E00BC0412F33
:100870006C2F8D2F0E94C903CF5FC930C1F7DF5F96
:10088000DE3011F0C0E0F3CFDF91CF911F910895DA
:10089000CF92DF92EF92FF921F93CF93DF93CDB76A
:1008A000DEB760970FB6F894DEBF0FBECDBF889F4E
:1008B000F0011124389674E0F695E7957A95E1F702
:1008C0009F01A4E0B1E00E9404076B017C011A8241
:1008D0001982A8E7BEE10E940407A4E196958795D6
:1008E00077956795AA95D1F77C836B83ACEABCE6D4
:1008F0000E940407B4E19695879577956795BA9518
:10090000D1F77E836D83A8E7B1EE0E94040714E15E
:1009100096958795779567951A95D1F778876F8320
:10092000DF0124ED3AE741E050E00E94100724E1A6
:1009300096958795779567952A95D1F77A876987F0
:1009400028EB36E342E050E00E94100734E1969530
:100950008795779567953A95D1F77C876B872CE1DA
:1009600033E143E050E00E94100744E196958795FB
:10097000779567954A95D1F77E876D875AE0F6940B
:10098000E794D794C7945A95D1F7B601D88ACF8601
:1009900080918C018111FCCFE0910903F0910A0351
:1009A000CE0101966F017E012FE0E20EF11C12E0F4
:1009B000AC010296DA0112962D913C9113974D915C
:1009C0005C91241B350B11F0219501C02FEFD6014E
:1009D0002D936D0117961C938E159F0549F79B016A
:1009E000359527953595279581E490E0821B930BEB
:1009F00011F0819501C08FEF878383E08787809115
:100A00008F01811109C0A0910D03B0910E0380E107
:100A100001900D928A95E1F781E080938C016096B8
:100A20000FB6F894DEBF0FBECDBFDF91CF911F91FF
:100A3000FF90EF90DF90CF900895CF93C82F61E0A3
:100A400080915E0190915F010E94140260E08091AC
:100A50005E0190915F010E94570290916E009C7F11
:100A600090936E0094B59C7F94BD95B5977F95BD8E
:100A7000C0938E0110928D01C0FF03C08FE592E0FC
:100A800002C087EB91E09093B6018093B50187EBAC
:100A900091E090930C0380930B0390930803809351
:100AA000070310928C0185EA91E090930A038093EA
:100AB000090385E991E090930E0380930D038FE77E
:100AC0000E94480480916E00816080936E0082E0F5
:100AD00085BD8FEF86BD81E080938F01CF91089512
:100AE0001F920F920FB60F9211242F933F934F93A3
:100AF0005F936F937F938F939F93AF93BF93EF9386
:100B0000FF9361E080915E0190915F010E94570226
:100B1000E0910D03F0910E0320919001E20FF11D81
:100B2000808585BD808186BD8091910186B983B124
:100B300090919201807E892B83B917B884B1807E11
:100B400084B981E090E00090930102C0880F991F62
:100B50000A94E2F79093920180939101273060F418
:100B6000E0910703F091080321913191822B932B9F
:100B7000F0930803E093070388B925B1207E292B61
:100B800025B987B984B1807E892B84B98091910180
:100B900086B983B190919201807E892B83B980912F
:100BA00090018F5F80939001883008F43FC01092CD
:100BB0009001809193018F5F809393018C30B0F10D
:100BC0001092930180918D01882391F010928D01F4
:100BD00080910B0390910C032091B5013091B601E7
:100BE00030930C0320930B039093B6018093B501CF
:100BF00080918C01882391F010928C0180910D03DB
:100C000090910E032091090330910A0330930E0353
:100C100020930D0390930A038093090380910B03A3
:100C200090910C03909308038093070360E08091F8
:100C30005E0190915F010E945702FF91EF91BF9179
:100C4000AF919F918F917F916F915F914F913F9164
:100C50002F910F900FBE0F901F90189561E080911B
:100C60006501909166010E94140260E08091370155
:100C7000909138010E94140262E0809135019091B8
:100C800036010E94140261E0809133019091340199
:100C90000E94140261E080913101909132010E9422
:100CA000140262E080912F01909130010E941402A1
:100CB00062E080912D0190912E010E94140262E069
:100CC00080912B0190912C010E94140261E080918F
:100CD0002101909122010E94140261E080910D0196
:100CE00090910E010E94140262E080910B0190919C
:100CF0000C010E94140261E08091090190910A01A7
:100D00000E94140261E080910701909108010E9405
:100D1000140261E080910501909106010E94140285
:100D200061E080910301909104010E941402F89403
:100D300080917A00806880937A0080918000816041
:100D400080938000809181008360809381008091F6
:100D5000B00081608093B0008091B1008260809388
:100D6000B10085B7806885BF85B7806885BF7894F6
:100D70000E94060361E080913101909132010E944E
:100D8000570260E080910D0190910E010E94570280
:100D900060E080916501909166010E94570283E0B6
:100DA0000E941D0583E00E94310467E085E00E94F7
:100DB0001F0467E083E00E940D0480E00E94C003EE
:100DC0006091170380913301909134010E94570282
:100DD0002FEF89E698E1215080409040E1F700C074
:100DE00000001092170360E080913301909134016C
:100DF0000E9457020E94EF0080910B0190910C011C
:100E00000E948902682FF0CFA29FB001B39FC0015A
:100E1000A39F01D0B29F700D811D1124911D0895D3
:100E20000E940407A59F900DB49F900DA49F800D74
:100E3000911D11240895A1E21A2EAA1BBB1BFD01CE
:100E40000DC0AA1FBB1FEE1FFF1FA217B307E407A9
:100E5000F50720F0A21BB30BE40BF50B661F771F01
:100E6000881F991F1A9469F76095709580959095E1
:0E0E70009B01AC01BD01CF010895F894FFCFA6
:100E7E000506040307030603050304030303020226
:100E8E000002070206020502040203020202010228
:100E9E000001040103010201010100000700060028
:100EAE000500040003000200012000230026002993
:100EBE00002200250028002B002100240027002AF4
:100ECE00007D060000000200000000080000030282
:020EDE0003020D
:00000001FF
