:100000000C943E000C946F000C946F000C946F00E5
:100010000C946F000C946F000C946F000C946F00A4
:100020000C94E9000C946F000C946F000C946F001A
:100030000C946F000C946F000C946F000C94E3020E
:100040000C946F000C946F000C946F000C946F0074
:100050000C946F000C946F000C946F000C946F0064
:100060000C946F000C946F000C946F000C946F0054
:100070000C946F000C946F000C946F0011241FBE41
:10008000CFEFD0E1DEBFCDBF84B78093750114BE42
:1000900098E10FB6F89490936000109260000FBE44
:1000A00091E09093760183FB882780F98093770114
:1000B00011E0A0E0B1E0E0E6F8E002C005900D92AA
:1000C000A434B107D9F711E0A4E4B1E001C01D9256
:1000D000AF36B107E1F70E9442030C942E040C9452
:1000E0000000CF9380911D0190911E010E94320269
:1000F00090934501809344019695879596958795B1
:1001000080936E01893C40F4873940F4853640F491
:10011000813440F4C0E007C0CFEF05C0C8EC03C095
:10012000C6E901C0C4E6809146018C1741F06C2FEE
:1001300070E0809100010E944C02C0934601CF9173
:10014000089510927601E0E6F0E088E180838FE484
:100150008083A8957894089520917101309172015F
:100160008823D9F0A895232B69F01092740110927E
:10017000730110927201109271011092700110922D
:100180006F0124C08091730190917401892B01F15A
:1001900010927401109273010895232BC9F080917D
:1001A0006F0190917001892B11F00C9430030E9423
:1001B00030032091710130917201621B730B810930
:1001C000910961327E448105910510F00C94A100E3
:1001D00008951F920F920FB60F9211242F933F9301
:1001E0004F935F936F937F938F939F93AF93BF933F
:1001F000EF93FF93F894A89584B78093750184B723
:10020000877F84BF80916000886180936000109236
:10021000600060E080911701909118010E94D9015F
:1002200061E080910D0190910E010E94D90160E082
:1002300070E0809101010E944C0260E070E08091CA
:1002400002010E944C028091730190917401892BEC
:1002500069F488E18093600088E0809360000E94E8
:10026000300370937401609373014EC080917101EB
:1002700090917201892B09F561E080910F019091B5
:1002800010010E94D90124E53DEC8DE293E021505C
:10029000304080409040D9F700C000C0000060E0CE
:1002A00080910F01909110010E94D9010E943003AA
:1002B000709372016093710127C080916F019091DA
:1002C0007001892B09F561E0809147019091480107
:1002D0000E94D9012FEF39E688E12150304080405B
:1002E000E1F700C0000060E0809147019091480173
:1002F0000E94D9010E9430037093700160936F01D6
:1003000010927401109273017894FF91EF91BF9154
:10031000AF919F918F917F916F915F914F913F919D
:100320002F910F900FBE0F901F901895CF93DF93D2
:10033000C92FD0E021E030E001C0220F9A95EAF702
:1003400090E0AC01440F551FFA01E15DFE4F0190B2
:10035000F081E02DDA01A95DBE4F0D90BC91A02D7A
:100360005FB7F894611108C0308120953223308343
:100370003C9132233C930EC0422F623041F43081D5
:100380002095232320832C91242B2C9303C02081A0
:10039000242B20835FBFFC0183E0EE0FFF1F8A95B3
:1003A000E1F7EC0FFD1FE75BFE4F6083DF91CF911C
:1003B000089521E030E001C0220F9A95EAF7E82F76
:1003C000F0E0EE0FFF1FE95DFE4F0190F081E02DA0
:1003D0009FB7F8948081611104C020952823208361
:1003E00002C0822B80839FBF0895E82FF0E0EE0FBC
:1003F000FF1FE15EFE4F0190F081E02D408121E082
:1004000030E0092E01C0220F0A94EAF7422381E06E
:1004100009F480E00895492F21E030E001C0220F67
:100420009A95EAF790E0FC0163E0EE0FFF1F6A95F2
:10043000E1F7E40FF11DE75BFE4F3081880F991F54
:10044000FC01E15EFE4F0190F081E02D908192234E
:1004500081E0323019F4992321F002C0911101C0DA
:1004600080E00895811114C0977090937C00809172
:100470007A00806480937A0080917A0086FDFCCFB8
:100480008091780090917900392F20E0282B02C0CC
:1004900020E030E0C90108958330B1F028F48130C4
:1004A00049F08230A1F50BC0853011F1B8F08630EB
:1004B00071F526C084B5806884BD67BD089584B594
:1004C000806284BD68BD08958091800080688093BB
:1004D0008000709389006093880008958091800067
:1004E00080628093800070938B0060938A000895EF
:1004F0008091B00080688093B0006093B30008954D
:100500008091B00080628093B0006093B400089541
:10051000F8948091810087708330C9F028F481308D
:1005200041F0823079F416C0843031F0853051F4D6
:1005300006C061E070E010C060E071E00DC060E0F6
:1005400074E00AC08091810083608093810060E440
:1005500070E002C068E070E0762F662793E0769541
:1005600067959A95E1F780E090E060934001709381
:100570004101809342019093430128EE33E040E033
:1005800050E00E940C0420933C0130933D014093C5
:100590003E0150933F01DC01CB0123E0B695A795C6
:1005A000979587952A95D1F78093380190933901D3
:1005B000A0933A01B0933B0180916F0081608093DA
:1005C0006F00789408951F920F920FB60F92112426
:1005D0002F933F934F935F936F937F938F939F934B
:1005E000AF93BF938091690190916A01A0916B01D3
:1005F000B0916C0120916D0140913C0150913D0101
:1006000060913E0170913F01840F951FA61FB71F97
:1006100030913801230F4091800040FD230F30912D
:100620003701231720F0231B0196A11DB11D209334
:100630006D018093690190936A01A0936B01B0935F
:100640006C01BF91AF919F918F917F916F915F915D
:100650004F913F912F910F900FBE0F901F901895C3
:100660000F931F938FB7F8940091690110916A015D
:1006700020916B0130916C018FBFB801C9011F91AE
:100680000F91089561E080914701909148010E9487
:10069000960160E080911D0190911E010E949601DB
:1006A00062E080911B0190911C010E94960161E023
:1006B0008091190190911A010E94960161E0809148
:1006C0001701909118010E94960162E08091150136
:1006D000909116010E94960162E080911301909121
:1006E00014010E94960162E0809111019091120123
:1006F0000E94960161E080910F01909110010E948B
:10070000960161E080910D0190910E010E94960189
:1007100062E080910B0190910C010E94960161E0D2
:100720008091090190910A010E94960161E08091F7
:100730000701909108010E94960161E080910501F6
:10074000909106010E94960161E0809103019091D1
:1007500004010E949601F89480917A008068809349
:100760007A00809180008160809380008091810078
:100770008360809381008091B00081608093B0009D
:100780008091B10082608093B10078940E948802C9
:1007900061E080911701909118010E94D90160E0F9
:1007A00080910D0190910E010E94D90160E080912D
:1007B0004701909148010E94D90160917701809191
:1007C000190190911A010E94D9012FEF89E698E151
:1007D000215080409040E1F700C000001092770166
:1007E00060E08091190190911A010E94D9010E9444
:1007F000A10080E00E94AC000E94710080910B017A
:1008000090910C010E940B02682F80911901909128
:100810001A010E94D901EDCFA1E21A2EAA1BBB1B1F
:10082000FD010DC0AA1FBB1FEE1FFF1FA217B307BC
:10083000E407F50720F0A21BB30BE40BF50B661FD2
:10084000771F881F991F1A9469F760957095809596
:1008500090959B01AC01BD01CF010895F894FFCFA5
:10086000050604030703060305030403030302024A
:10087000000007000600050004000300020001203C
:10088000002300260029002200250028002B00213B
:1008900000240027002A007D06000000020000005E
:0408A000000800004C
:00000001FF
