:100000000C943E000C9448000C9448000C9448005A
:100010000C9448000C9448000C9448000C94480040
:100020000C9448000C9448000C9448000C94480030
:100030000C9448000C9448000C9448000C94480020
:100040000C9448000C9448000C9448000C94480010
:100050000C9448000C9448000C9448000C94480000
:100060000C9448000C9448000C9448000C944800F0
:100070000C9448000C9448000C94480011241FBEB6
:10008000CFEFD0E1DEBFCDBF0E949D000C94D20027
:100090000C940000877080937C0080917A008064CB
:1000A00080937A0080917A0086FDFCCF20917800C1
:1000B00030917900932F80E0AC01422B9A01C90165
:1000C00008958330B1F028F4813049F08230A1F5F1
:1000D0000BC0853011F1B8F0863071F526C084B5BB
:1000E000806884BD67BD089584B5806284BD68BDA5
:1000F00008958091800080688093800070938900CB
:1001000060938800089580918000806280938000D1
:1001100070938B0060938A0008958091B00080688E
:100120008093B0006093B30008958091B000806226
:100130008093B0006093B400089580917A00806845
:1001400080937A0084B5816084BD85B5816085BD6A
:100150008091800081608093800080918100816027
:10016000809381008091B00081608093B000809185
:10017000B10081608093B100209A53985B9A239AD2
:1001800082E00E944A00BC01769567957695679556
:10019000772781E00E9461004B9B02C02898F0CF36
:0801A000289AEECFF894FFCF7E
:00000001FF
